:100000000C947A000C9484000C9484000C9484006A
:100010000C9484000C9484000C9484000C94840050
:100020000C9484000C9484000C9484000C94840040
:100030000C9484000C9484000C9484000C94840030
:100040000C9484000C9484000C9484000C94840020
:100050000C9484000C9484000C9484000C94840010
:100060000C9484000C9484000C9484000C94840000
:100070000C9484000C9484000C9484000C948400F0
:100080000C9484000C9484000C9484000C948400E0
:100090000C9484000C9484000C9484000C948400D0
:1000A0000C9484000C9484000C9484000C948400C0
:1000B0000C9484000C9486000C9484000C948400AE
:1000C0000C9484000C9484000C9484000C948400A0
:1000D0000C9484000C9484000C9484000C94840090
:1000E0000C9484000C9484000C9484000C94840080
:1000F0000C94840011241FBECFEFCDBFDFE7DEBF1D
:100100000E94A0000C94C6000C9400001F920F9255
:100110000FB60F9211240BB60F928F93EF93FF93AC
:10012000E0E2F4E088E0868384E08187FF91EF914C
:100130008F910F900BBE0F900FBE0F901F901895D0
:10014000E0E2F4E088E08583818384E08283828931
:100150008B60828B109250007894E0E5F0E0A0E292
:10016000B4E098E0808181608083889580818E7F73
:1001700080832FEF34E38CE0215030408040E1F762
:1001800000C0000015969C931597ECCFF894FFCF14
:00000001FF
