S02200004156525F44425F4C45445F626C696E6B5F696E746572727570742E7372656345
S11300000C947A000C9484000C9484000C94840066
S11300100C9484000C9484000C9484000C9484004C
S11300200C9484000C9486000C9484000C9484003A
S11300300C9484000C9484000C9484000C9484002C
S11300400C9484000C9484000C9484000C9484001C
S11300500C9484000C9484000C9484000C9484000C
S11300600C9484000C9484000C9484000C948400FC
S11300700C9484000C9484000C9484000C948400EC
S11300800C9484000C9484000C9484000C948400DC
S11300900C9484000C9484000C9484000C948400CC
S11300A00C9484000C9484000C9484000C948400BC
S11300B00C9484000C9484000C9484000C948400AC
S11300C00C9484000C9484000C9484000C9484009C
S11300D00C9484000C9484000C9484000C9484008C
S11300E00C9484000C9484000C9484000C9484007C
S11300F00C94840011241FBECFEFCDBFDFE7DEBF19
S11301000E94A7000C94AE000C9400001F920F9262
S11301100FB60F9211248F9388E08093270481E017
S113012080930B0A8F910F900FBE0F901F9018951C
S1130130E0E0FAE081E0828788E09DE386A397A36C
S11301408DE08083118281858E7F8187089588E088
S1130150809321040E9498007894FFCFF894FFCFF5
S9030000FC
