S01E00004156525F44425F4750494F5F4445424F554E43494E472E737265636D
S11300000C947A000C9484000C9484000C94840066
S11300100C9484000C9484000C9484000C9484004C
S11300200C9484000C9484000C9484000C9484003C
S11300300C9484000C9484000C94B9000C948400F7
S11300400C9484000C9484000C9484000C9484001C
S11300500C9484000C9484000C9484000C9484000C
S11300600C9484000C9484000C9484000C948400FC
S11300700C9484000C9484000C9484000C948400EC
S11300800C9484000C9484000C9484000C948400DC
S11300900C9484000C9484000C9484000C948400CC
S11300A00C9484000C9484000C9484000C948400BC
S11300B00C9484000C9484000C9484000C948400AC
S11300C00C9484000C9484000C9484000C9484009C
S11300D00C9484000C9484000C9484000C9484008C
S11300E00C9484000C9484000C9484000C9484007C
S11300F00C94840011241FBECFEFCDBFDFE7DEBF19
S11301000E94EB000C94EE000C940000E0E2F4E09A
S113011088E08183858384E0828382898860828BFE
S11301200895E0E0F2E08AE4808B81E086AF0895F0
S1130130E0E0FBE08FEF9FEF8487958726E0218343
S113014021E1248323E020838287938781E08583D0
S113015008950E9486000E9491000E94980078945D
S1130160089588E080932504089588E08093260408
S113017008951F920F920FB60F9211240BB60F928F
S11301802F933F934F935F936F937F938F939F939B
S1130190AF93BF93EF93FF938091280482FF03C032
S11301A00E94B10002C00E94B50081E08093060B5A
S11301B0FF91EF91BF91AF919F918F917F916F913B
S11301C05F914F913F912F910F900BBE0F900FBEF7
S11301D00F901F9018950E94A900FFCFF894FFCFAD
S9030000FC
