:100000000C947A000C948C000C948C000C948C0052
:100010000C948C000C948C000C948C000C948C0030
:100020000C948C000C948C000C948C000C948C0020
:100030000C948C000C948C000C948C000C948C0010
:100040000C948C000C948C000C948C000C948C0000
:100050000C948C000C948C000C948C000C948C00F0
:100060000C948C000C948C000C948C000C948C00E0
:100070000C948C000C948C000C948C000C948C00D0
:100080000C948C000C948C000C948C000C948C00C0
:100090000C948C000C948C000C948C000C948C00B0
:1000A0000C948C000C948C000C948C000C948C00A0
:1000B0000C948C000C948C000C948C000C948C0090
:1000C0000C948C000C948C000C948C000C948C0080
:1000D0000C948C000C948C000C948C000C948C0070
:1000E0000C948C000C948C000C948C000C948C0060
:1000F0000C948C0011241FBECFEFCDBFDFE7DEBF15
:1001000020E4A0E0B0E401C01D92A430B207E1F702
:100110000E94A0000C94D3000C94000080E4809313
:100120004104089588E08093E605E0E4FAE083E482
:1001300081838FEF9FE086A397A381E0808308955A
:100140000E948E000E949200809100409091014098
:1001500080936C0A90936D0A87EE93E00197F1F714
:1001600000C000008091004090910140A0910240A9
:10017000B09103400196A11DB11D80930040909362
:100180000140A0930240B09303408F3F9F40A105E0
:10019000B105D1F610920040109201401092024039
:0A01A00010920340D1CFF894FFCF76
:00000001FF
