:100000000C947A000C9484000C9484000C9484006A
:100010000C9484000C9484000C9484000C94840050
:100020000C9484000C9484000C9484000C94840040
:100030000C9484000C9484000C9484000C94840030
:100040000C9484000C9484000C9484000C94840020
:100050000C9484000C9484000C9484000C94840010
:100060000C9484000C9484000C9484000C94840000
:100070000C9484000C9484000C9484000C948400F0
:100080000C9484000C9484000C9484000C948400E0
:100090000C9484000C9484000C9484000C948400D0
:1000A0000C9484000C9484000C9484000C948400C0
:1000B0000C9484000C9484000C9484000C948400B0
:1000C0000C9484000C9484000C9484000C948400A0
:1000D0000C9484000C9484000C9484000C94840090
:1000E0000C9484000C9484000C9484000C94840080
:1000F0000C94840011241FBECFEFCDBFDFE7DEBF1D
:100100000E94A5000C94C8000C94000065EA80E8E9
:1001100090E00E94C2008091650084FFFCCF60E007
:1001200081E690E00E94C20063E880E690E00E94D1
:10013000C2008091650080FDFCCF609180006F77E8
:1001400080E890E00E94C20008950E94860088E046
:1001500080932104E0E2F4E088E085832FEF33ED23
:1001600090E3215030409040E1F700C000008683CA
:100170002FEF33ED80E3215030408040E1F700C0A5
:100180000000E8CFDC0128ED209334006C93089543
:04019000F894FFCF11
:00000001FF
